:1000000092C0ACC0ABC0AAC0A9C0A8C0A7C0A6C0BF
:10001000A5C0A4C0BDC1A2C0A1C0A0C09FC07C1F7C
:1000200002200220022002207C1F000000000000AD
:10003000000000007C1F001F82208220822082207E
:100040007C00000082208220822082207C1F7C0095
:1000500080008000800080007C1F7C008220822045
:1000600082208220001F7C1F82208220822082200A
:10007000001F7C0002000200020002007C1F7C1FA7
:1000800082208220822082207C1F7C00822082208D
:10009000822082207C1F0000F03F8C0082008C00B8
:1000A000F03F0000FE07001800200018FE070000C7
:1000B000FE1F0020001F0020FE1F0000FE3F000169
:1000C00080008000003F0000803F8000803F800073
:1000D000003F000000000030003000000000000081
:1000E0000000300630060000000080008000800024
:1000F0008000800080000000000000000000000080
:100100000000A81F2001DA028D14AFA1C80E0C0D4B
:10011000FF121112FF0E0A0DFF0E0A12FF0E0C1233
:10012000FF0E0B12FF0011241FBECFE5D2E0DEBF91
:10013000CDBF10E0A0E6B0E0EAE4F8E002C0059030
:100140000D92AA36B107D9F720E0AAE6B0E001C0C7
:100150001D92AE36B207E1F740D175C351CF282FBB
:10016000B89898E080E0880FC895BA98B0998160F7
:10017000BA9A9150C1F72111B89AC895BA98C89502
:10018000BA9A0895B89ABA98B898089598E087FFEF
:1001900002C0B89801C0B89ABA98C895BA9A880FA0
:1001A0009150A9F7C895B898BA98C895BA9A089581
:1001B0001F93CF93DF93E82FEE0FEE0FEE0F880F14
:1001C000880FCE2FC80F80E0E1DF80E0DFDFDCE0CA
:1001D000DC0F11E01C0FEC2FF0E0E25EFF4F84918A
:1001E000D5DFC12FD113F5CF80E0D0DF80E0DF91E4
:1001F000CF911F91CBCFB89ABA9AC8CFCF93DF9344
:10020000C82F80E8F8DF8C2FC1DFB898BA9881E852
:10021000F2DF81E0A4DFC82F80E0A1DFD0E0DC2F97
:10022000CC27C82BAFDFCE01DF91CF910895CF93BC
:10023000C82F88E7E0DF80E4A9DF80E0CA3018F04B
:100240008F5FCA50FBCFB4DF8C2FB2DFCF919ACF34
:100250000F931F93CF93DF938C0188E7CCDF80E46B
:1002600095DFC4E6D0E02991399180E002171307A9
:1002700020F08F5F021B130BF9CF9ADF80E0CA36A4
:10028000D80789F7DF91CF911F910F917BCFEF9224
:10029000FF920F931F93CF93DF938C0188E7ABDF1F
:1002A00080E474DF80E6E82E80E0F82EC0E0D0E045
:1002B000F701219131917F0180E00217130728F0A7
:1002C0008F5F021B130BD1E0F8CFD11103C0C430F4
:1002D00009F082E16DDFCF5FC53051F7DF91CF913B
:1002E0001F910F91FF90EF904DCFCF93DF93EC01D3
:1002F00088E781DF80E44ADFFE0184918F3F19F0B7
:1003000057DF2196F9CFDF91CF913CCFCF93C82F04
:1003100088E771DF80E43ADF8C2F4ADFCF9132CF5C
:10032000CF93DF93C82FD62F88E765DF80E02EDFDD
:1003300082E22CDF8D2F2ADF81E08D0F27DF8C2FCB
:100340008F7024DF8C2F82958F7080611FDF8D2F3F
:10035000806B1CDFDF91CF9115CFCF9360E080E001
:10036000DFDF88E748DF80E411DFC0E080E00EDFF8
:10037000C150E1F707DF62E080E0D2DF88E73BDFD2
:1003800080E404DF80E002DFC150E1F7CF91FACED4
:100390001F920F920FB60F9211248F939F93AF93DA
:1003A000BF9380916A0090916B00A0916C00B09116
:1003B0006D000196A11DB11D80936A0090936B00A2
:1003C000A0936C00B0936D00BF91AF919F918F91FE
:1003D0000F900FBE0F901F901895CF93DF93CDB75E
:1003E000DEB7A4970FB6F894DEBF0FBECDBF88E08E
:1003F00088BB8CE789BD82E08ABD83E083BF80E152
:1004000089BF789487B38A7F87BB88B38A7F88BB8C
:1004100080E8F1DE80E0BADE87E2B8DE8FEFB6DE9C
:10042000B1DE80E8E8DE85E0B1DE84E1AFDE80E0C9
:10043000ADDEA8DE88E7DFDE80E0A8DE22E031E086
:100440003C832B830DE011E0EB81FC8184919EDEE7
:100450002B813C812F5F3F4F3C832B830217130777
:1004600099F790DE7ADFF894C0906A00D0906B0024
:10047000E0906C00F0906D00789431E03A8319823E
:10048000198A1A8A1B8A1C8A412C512C32011D861A
:100490001E861F86188A1C861B864FEF5FEF5A87C1
:1004A000498718861F828FEF9FEF9E838D83212CB3
:1004B000312CAFEFBFEFBC83AB8338EE832E33E03C
:1004C000932EA12CB12C82E099DE969587958C0114
:1004D0000C7F84E093DE9CA38BA397FF04C08095E0
:1004E00090959CA38BA3F89420916A0030916B00A7
:1004F00040916C0050916D002F8F38A349A35AA3EF
:1005000078942C193D094E095F092D8B3E8B4F8B3A
:10051000588F8D859E85AF85B889820F931FA41F44
:10052000B51F8D879E87AF87B88BABA1BCA1AD01EE
:1005300060E070E0C801A0E0B0E0498F5A8F6B8F97
:100540007C8F9A01AB01BC01CD012ED1A501940194
:1005500058D169017A013E8F2D8F298D3A8D4B8DAF
:100560005C8D6D897E898F89988D1ED120E13EE05A
:1005700040E050E046D1420E531E641E751EC70176
:10058000B601882799272D893E894F89588D0CD12E
:1005900020E13EE040E050E034D189899A89AB897E
:1005A000BC89820F931FA41FB51F898B9A8BAB8BBD
:1005B000BC8BAB81BC810A171B0710F41C830B8317
:1005C0002016310608F41801ED81FE812BA13CA113
:1005D0002E173F0710F43E832D834F8158858BA142
:1005E0009CA14817590710F498878F83A985BA856D
:1005F000ED8DFE8DEA17FB0710F4DA86C9862B8590
:100600003C854D8D5E8D2417350710F4DC86CB8636
:10061000B3990DC05A8151110CC089818F5F8983B4
:10062000853008F0198299DE91E09A8304C01A821D
:1006300002C0A1E0AA83B981B23009F46FC018F5F5
:10064000BB2309F44BC0B13009F0A0C060E080E0EA
:1006500067DE8B819C811BDE81E191E046DEC1017A
:1006600016DE81E291E041DE62E080E059DE8D81BC
:100670009E810DDE81E191E038DE8F81988507DE75
:1006800089E191E059C0E981E33009F457C0E430D1
:1006900009F07CC06D857E858F859889A5019401C0
:1006A000B0D03E8B2D8B61E080E23ADE8D899E8951
:1006B00060E17EE092D09E8B8D8B862FB8DD80E14D
:1006C00025DE8D899E896CE370E087D08D8B862F27
:1006D000AEDD80E11BDE8D89AADD58C060E080E0E0
:1006E0001FDEC801D4DD81E291E0FFDDC601CFDD70
:1006F0008DE191E0FADD62E080E012DE8BA19CA149
:10070000C6DD89E191E0F1DDC301B201A5019401EB
:1007100078D0C901BCDD85E191E00EC061E080E0E8
:10072000FFDD89859A85B3DD81E191E0DEDD8B8592
:100730009C85ADDD8DE191E0D8DD28C060E080E1F1
:10074000EFDDC301B201A50194015BD06B017C0117
:10075000C9019DDD8FE0DADDC6017ADD85E191E03A
:10076000C4DD62E080E1DCDD69897A898B899C895E
:10077000A501940146D06B017C01C90188DD8FE0A1
:10078000C5DDC60165DD8DE091E0D6CFFFEF20E746
:1007900032E0F15020403040E1F700C00000CF8C43
:1007A000D8A0E9A0FAA08FCEEE27FF27AA27BB2763
:1007B00008C0A20FB31FE41FF51F220F331F441FF1
:1007C000551F969587957795679598F37040A9F78B
:1007D000009799F7BD01CF010895AA1BBB1B51E1FA
:1007E00007C0AA1FBB1FA617B70710F0A61BB70BA1
:1007F000881F991F5A95A9F780959095BC01CD0146
:100800000895A1E21A2EAA1BBB1BFD010DC0AA1F51
:10081000BB1FEE1FFF1FA217B307E407F50720F069
:10082000A21BB30BE40BF50B661F771F881F991FE4
:100830001A9469F760957095809590959B01AC012D
:0A084000BD01CF010895F894FFCF29
:0A084A001027E80364000A00010013
:00000001FF
