:1000000097C0A6C0A5C0A4C0A3C0A2C0A1C0A0C0E4
:100010009FC09EC0B3C19CC09BC09AC099C07C1FAA
:1000200002200220022002207C1F000000000000AD
:10003000000000007C1F001F82208220822082207E
:100040007C00000082208220822082207C1F7C0095
:1000500080008000800080007C1F7C008220822045
:1000600082208220001F7C1F82208220822082200A
:10007000001F7C0002000200020002007C1F7C1FA7
:1000800082208220822082207C1F7C00822082208D
:10009000822082207C1F0000F03F8C0082008C00B8
:1000A000F03F0000FE07001800200018FE070000C7
:1000B000FE1F0020001F0020FE1F0000FE3F000169
:1000C00080008000003F0000803F8000803F800073
:1000D000003F000000000030003000000000000081
:1000E0000000300630060000000080008000800024
:1000F0008000800080000000000000000000000080
:1001000000001027E80364000A000100A81F200176
:10011000DA028D14AFA1C80E0C0DFF121112FF0EE2
:100120000A0DFF0E0A12FF0E0C12FF0E0B12FF003B
:1001300011241FBECFE5D2E0DEBFCDBF20E0A0E698
:10014000B0E001C01D92A436B207E1F73CD165C30F
:1001500057CF282FB89898E080E0880FBA98B099C8
:100160008160BA9A9150C9F72111B89ABA98BA9A8F
:100170000895B89ABA98B898089598E087FF02C091
:10018000B89801C0B89ABA98BA9A880F9150B1F746
:10019000B898BA98BA9A08951F93CF93DF93E82F2F
:1001A000EE0FEE0FEE0F880F880FCE2FC80F80E0F6
:1001B000E4DF80E0E2DFDCE0DC0F11E01C0FEC2F7D
:1001C000F0E0E25EFF4F8491D8DFC12FD113F5CF6D
:1001D00080E0D3DF80E0DF91CF911F91CECFB89A3E
:1001E000BA9ACBCFCF93DF93C82F80E8F8DF8C2F5C
:1001F000C4DFB898BA9881E8F2DF81E0AADFC82F9F
:1002000080E0A7DFD0E0DC2FCC27C82BB2DFCE0107
:10021000DF91CF910895CF93C82F88E7E0DF80E486
:10022000ACDF80E0CA3018F08F5FCA50FBCFB4DF7C
:100230008C2FB2DFCF919DCF0F931F93CF93DF937E
:100240008C0188E7CCDF80E498DFC0E0D0E0FE01DD
:10025000EA5FFE4F2591349180E00217130720F0EA
:100260008F5F021B130BF9CF97DF2296C630D105A3
:1002700071F7DF91CF911F910F917BCFEF92FF929A
:100280000F931F93CF93DF937C0188E7A8DF80E46F
:1002900074DF02E011E0C0E0D0E0F8012591349174
:1002A00080E0E216F30628F08F5FE21AF30AD1E04D
:1002B000F8CFD11103C0C43009F082E16DDFCF5F08
:1002C0000E5F1F4FC53049F7DF91CF911F910F91FE
:1002D000FF90EF904ECFCF93DF93EC0188E77FDF65
:1002E00080E44BDFFE0184918F3F19F055DF2196AA
:1002F000F9CFDF91CF913DCFCF93C82F88E76FDF44
:1003000080E43BDF8C2F48DFCF9133CFCF93DF9357
:10031000C82FD62F88E763DF80E02FDF82E22DDF52
:100320008D2F2BDF81E08D0F28DF8C2F8F7025DF45
:100330008C2F82958F70806120DF8D2F806B1DDF69
:10034000DF91CF9116CFCF9360E080E0DFDF88E7C9
:1003500046DF80E412DFC0E080E00FDFC150E1F74C
:1003600008DF62E080E0D2DF88E739DF80E405DF84
:1003700080E003DFC150E1F7CF91FBCE1F920F92D7
:100380000FB60F9211248F939F93AF93BF938091D9
:10039000600090916100A0916200B09163000196AD
:1003A000A11DB11D8093600090936100A093620035
:1003B000B0936300BF91AF919F918F910F900FBE4B
:1003C0000F901F901895CF93DF93CDB7DEB7A4970A
:1003D0000FB6F894DEBF0FBECDBFC39A8CE789BDC0
:1003E00082E08ABD83BF80E189BF80E8F8DE80E0DB
:1003F000C4DE87E2C2DE8FEFC0DEBBDE80E8EFDE68
:1004000085E0BBDE84E1B9DE80E0B7DEB2DE88E7FE
:10041000E6DE80E0B2DE2CE031E03C832B8307E1B6
:1004200011E0EB81FC818491A8DE2B813C812F5F60
:100430003F4F3C832B830217130799F79ADE83DF24
:10044000F894C0906000D0906100E0906200F0905D
:100450006300789431E03A831982198A1A8A1B8AD8
:100460001C8A412C512C32011D861E861F86188A3B
:100470001C861B864FEF5FEF5A87498718861F82BD
:100480008FEF9FEF9E838D83212C312CAFEFBFEF39
:10049000BC83AB8338EE832E33E0932EA12CB12C9A
:1004A00082E0A0DE969587958C010C7F84E09ADE31
:1004B0009CA38BA397FF04C0809590959CA38BA3CE
:1004C000F894209160003091610040916200509159
:1004D00063002F8F38A349A35AA378942C193D09A0
:1004E0004E095F092D8B3E8B4F8B588F8D859E85D6
:1004F000AF85B889820F931FA41FB51F8D879E8774
:10050000AF87B88BABA1BCA1AD0160E070E0C801C2
:10051000A0E0B0E0498F5A8F6B8F7C8F9A01AB01BE
:10052000BC01CD012BD1A501940155D169017A01FE
:100530003E8F2D8F298D3A8D4B8D5C8D6D897E89F7
:100540008F89988D1BD120E13EE040E050E043D1FF
:10055000420E531E641E751EC701B60188279927D7
:100560002D893E894F89588D09D120E13EE040E038
:1005700050E031D189899A89AB89BC89820F931F58
:10058000A41FB51F898B9A8BAB8BBC8BAB81BC81B5
:100590000A171B0710F41C830B832016310608F47E
:1005A0001801ED81FE812BA13CA12E173F0710F40D
:1005B0003E832D834F8158858BA19CA148175907F5
:1005C00010F498878F83A985BA85ED8DFE8DEA1783
:1005D000FB0710F4DA86C9862B853C854D8D5E8D30
:1005E0002417350710F4DC86CB86B3990DC05A81E9
:1005F00051110CC089818F5F8983853008F0198281
:10060000A2DE91E09A8304C01A8202C0A1E0AA830C
:10061000B981B23009F46FC018F5BB2309F44BC09F
:10062000B13009F0A0C060E080E070DE8B819C8179
:1006300025DE8BE191E04FDEC10120DE8BE291E00F
:100640004ADE62E080E062DE8D819E8117DE8BE112
:1006500091E041DE8F81988511DE83E291E059C0FF
:10066000E981E33009F457C0E43009F07CC06D85BE
:100670007E858F859889A5019401ADD03E8B2D8B09
:1006800061E080E243DE8D899E8960E17EE08FD06B
:100690009E8B8D8B862FBFDD80E12EDE8D899E891E
:1006A0006CE370E084D08D8B862FB5DD80E124DE95
:1006B0008D89B1DD58C060E080E028DEC801DEDD54
:1006C0008BE291E008DEC601D9DD87E291E003DE2E
:1006D00062E080E01BDE8BA19CA1D0DD83E291E093
:1006E000FADDC301B201A501940175D0C901C6DDCF
:1006F0008FE191E00EC061E080E008DE89859A8597
:10070000BDDD8BE191E0E7DD8B859C85B7DD87E280
:1007100091E0E1DD28C060E080E1F8DDC301B201D5
:10072000A501940158D06B017C01C901A7DD8FE0C0
:10073000E3DDC60181DD8FE191E0CDDD62E080E1A6
:10074000E5DD69897A898B899C89A501940143D06B
:100750006B017C01C90192DD8FE0CEDDC6016CDD4D
:1007600087E191E0D6CF83ED90E30197F1F700C0E8
:100770000000CF8CD8A0E9A0FAA092CEEE27FF27E8
:10078000AA27BB2708C0A20FB31FE41FF51F220F23
:10079000331F441F551F969587957795679598F356
:1007A0007040A9F7009799F7BD01CF010895AA1BE2
:1007B000BB1B51E107C0AA1FBB1FA617B70710F04C
:1007C000A61BB70B881F991F5A95A9F7809590957E
:1007D000BC01CD010895A1E21A2EAA1BBB1BFD018D
:1007E0000DC0AA1FBB1FEE1FFF1FA217B307E40710
:1007F000F50720F0A21BB30BE40BF50B661F771F68
:10080000881F991F1A9469F7609570958095909547
:0E0810009B01AC01BD01CF010895F894FFCF0C
:00000001FF
